S123E0007EE5827E1FE87EE9AC7EE9B67EE9CA7EE9C67EE9E47EE9E27EE9EB7EEA067EEA48
S123E0201A7EE9BD7EE9E67EEA7E7EEA890D0A040D0A3E20040D0A0A4D4333206D6F6E692F
S123E040746F7220312E342E320D0A44616E69656C20547566766573736F6E20323031331D
S123E0602D323031370D0A0D0A20472020476F2028525449290D0A204A20204A756D70203D
S123E080746F20616464726573730D0A204C20204C6F6164205331392066726F6D20636FAD
S123E0A06E736F6C650D0A204D43204D656D6F7279206368616E67650D0A204D44204D65BB
S123E0C06D6F72792064756D700D0A204D46204D656D6F72792066696C6C0D0A204D57207A
S123E0E04D656D6F72792077726974650D0A205252205072696E7420636F6E74656E7473C2
S123E100206F6620737461636B0D0A205243204368616E676520737461636B2043430D0AAB
S123E120205241204368616E676520737461636B20410D0A205242204368616E6765207367
S123E1407461636B20420D0A205258204368616E676520737461636B20580D0A20525020C8
S123E1604368616E676520737461636B2050430D0A205253204368616E676520737461635F
S123E1806B20706F696E7465720D0A20524D20526573657420737461636B20706F696E7476
S123E1A065720D0A2050202053656C65637420492F4F20706167650D0A2054202053696EC4
S123E1C0676C6520737465700D0A20582020456E74657220657874656E64656420524F4DDB
S123E1E00D0A20443320205365747570203638343520666F72203332204368617261637463
S123E2006572730D0A20443420205365747570203638343520666F72203430204368617230
S123E2206163746572730D0A20443720205365747570203638343520666F7220373220430B
S123E2406861726163746572730D0A20443820205365747570203638343520666F72203843
S123E2603020436861726163746572730D0A2053782020536574204269742078206F6620F0
S123E280506F727420420D0A2043782020436C656172204269742078206F6620506F7274C9
S123E2A020420D0A040D0A434320422020412020582020202050432020205350202020202F
S123E2C020482049204E205A205620430D0A040D0A414444522020302020312020322020C8
S123E2E03320203420203520203620203720202038202039202041202042202043202044F6
S123E3002020452020460D0A040D0A4C6F616420533139207265636F72640D0A040D0A0A84
S123E3204C6F6164206661696C202D205072657373205920746F20636F6E74696E75650D15
S123E3400A040D0A4C6F6164204F4B0D0A040D0A53544F50040D0A54524150040D0A496EBE
S123E36069742033322043686172040D0A496E69742034302043686172040D0A496E697419
S123E3802037322043686172040D0A496E69742038302043686172048E00D59FDDBDEA39BA
S123E3A0BDE9705F86FF9700D701860F9702D70386C09714CEE030BDE9B6BDE9AC810D27B6
S123E3C0F384DF814826037EE55C814726037EE565814A26037EE56B815226037EE51081C7
S123E3E04D26037EE41E814426037EE4E2814C26037EE87E815026037EE8FF814326037E4D
S123E400E498815326037EE44E815426037EE920815826037ED000863FBD1FE82096BDE915
S123E420AC810D26037EE3B484DF814326037EE756815726037EE790814626037EE7CB81BE
S123E4404426037EE80D863FBD1FE87EE3B4BDE9AC810D26037EE3B4813026037EE6478116
S123E4603126037EE650813226037EE659813326037EE662813426037EE66B813526037E44
S123E480E674813626037EE67D813726037EE686863FBD1FE87EE3B4BDE9AC810D26037E6D
S123E4A0E3B4813026037EE68F813126037EE698813226037EE6A1813326037EE6AA81349C
S123E4C026037EE6B3813526037EE6BC813626037EE6C5813726037EE6CE863FBD1FE87ED6
S123E4E0E3B4BDE9AC810D26037EE3B4813326037EE724813426037EE731813726037EE743
S123E5003E813826037EE74A863FBD1FE87EE3B4BDE9AC810D26037EE3B484DF815226030D
S123E5207EE587814126037EE5CA814226037EE5DB815826037EE5EC815026037EE601817A
S123E5404326037EE616815326037EE627814D26037EE637863FBD1FE87EE3B4CEE035BD79
S123E560E9B67EE3B4BDE9BD9EDD3BBDE9E6BDEA1A2407BDE9BD9EDD6E00863FBD1FE87EFF
S123E580E3B49FDD7EE3B4CEE2A5BDE9B6DEDD08BDE9E4BDE9E4BDE9E4BDE9E2BDE9E2CE5F
S123E5A000DDBDE9E2BDE9E6DEDDE601CE00065858BDE9E65825088630BD1FE87EE5C48608
S123E5C031BD1FE80926EA7EE3B4863DBD1FE8DEDDBDEA062469A7037EE3B4863DBD1FE852
S123E5E0DEDDBDEA062458A7027EE3B4863DBD1FE8BDEA1A2449DFE1DEDDDCE1ED047EE336
S123E600B4863DBD1FE8BDEA1A2434DFE1DEDDDCE1ED067EE3B4863DBD1FE8DEDDBDEA0673
S123E620241DA7017EE3B4863DBD1FE8BDEA1A240EDFDD357EE3B48E00D59FDDBDE3B4869F
S123E6403FBD1FE87EE3B496028A0197027EE3B496028A0297027EE3B496028A0497027EBE
S123E660E3B496028A0897027EE3B496028A1097027EE3B496028A2097027EE3B496028A35
S123E6804097027EE3B496028A8097027EE3B4960284FE97027EE3B4960284FD97027EE35D
S123E6A0B4960284FB97027EE3B4960284F797027EE3B4960284EF97027EE3B4960284DF68
S123E6C097027EE3B4960284BF97027EE3B49602847F97027EE3B430282B431D0C191BA0F3
S123E6E009001000000000625053292600191FA007000700000000625054291E00191BA2A0
S123E700090010000000008680365FF74000A600B74001085CC11026F29602847F331B979F
S123E720027EE3B4CEE35CBDE9B6CEE6D74F7EE709CEE36BBDE9B6CEE6D74F7EE709CEE39C
S123E7407ABDE9B6CEE6E77EE707CEE389BDE9B6CEE6F77EE707BDE9E6BDEA1A242ABDE9EA
S123E760BDCE00E1BDE9E2DEE1BDE9E4DFE1BDEA06240E09A700A10027E4863FBD1FE820B4
S123E780DD81DD27D97EE3B4863FBD1FE87EE3B4BDE9E6BDEA1A242BDFE17F00E0BDE9BD69
S123E7A0CE00E1BDE9E2DEE1BDEA0625087D00E026E87EE3B4A700860197E008DFE1BDE9F2
S123E7C0E620E5863FBD1FE87EE3B4BDE9E6BDEA1A242ADFE3862DBD1FE8BDEA1A241EDFF6
S123E7E0E19CE3231808DFE1BDE9E6BDEA06240D16DEE3E700089CE126F97EE3B4863FBD4F
S123E8001FE87EE3B4863FBD1FE87EE3B4BDE9E6BDEA1A24F0DFE1BDE9BD96E284F097E251
S123E820CEE2CFBDE9B6861097E0CE00E1BDE9E2BDE9E6DEE1DFE3BDE9E4DFE196E2840F53
S123E84081082603BDE9E6810026ECDEE3DFE1BDE9E6A600817E220481202C02862EBD1FAC
S123E860E808DFE196E2840F26E8BDE9BD7A00E0270220B6BDE9AC810D279F7EE3B4CEE3A3
S123E88009BDE9B6860DBD1FE88639B71FE8BDE9AC815326F4BDE9AC8139274E813126E9B9
S123E8A07F00DFBDEA0616DBDFD7DF800297E0BDEA1A241FD6DFDBE1DBE2D7DFBDEA06161F
S123E8C0DBDFD7DF7A00E02705A7000820EE7C00DF27B1867EB71FE8CEE31DBDE9B6BD1F86
S123E8E0EB84DF815926F77EE3B4BDE9AC810D26F9867EB71FE8CEE342BDE9B67EE3B4860F
S123E9003DBD1FE886FF9700BDE9EB240481072308863FBD1FE87EE3B48A8097027EE3B414
S123E920BDE9BD9EDD30A60084EFA700C61F5AC10026FBCEE945FF1FEFCEFFEDDF09DE0853
S123E940860497083B9FDDCEEA29FF1FEFDE0886009708DEDDC6063AEE008CC00022C4DF1A
S123E960E3D6E3C17F27BCCEE34EBDE9B67EE587860C9710860A971196123937D61158586F
S123E9805824F9971333399612961184C0810027F8814027F29612399612961184C08100E6
S123E9A02707814027F2860139860039BD1FEB7E1FE8BD1FE808A600810426F6393CCEE04A
S123E9C02DBDE9B6383944444444840F8B30813923028B077E1FE8A600BDE9C6A600087EA7
S123E9E0E9CA8DF38DF186207E1FE8BDE9AC80302B1281092F0C84DF81112B0881162E0442
S123EA0080070D390C39BDE9EB240D4848484816BDE9EB24031B0D390C398DEA240A97E16D
S123EA208DE4240497E2DEE1399FDD7EE5879FDDCEE355BDE9B67EE587867ECEEA29B71FDF
S123EA40FDFF1FFEB71FFAFF1FFBB71FF7FF1FF8B71FF4FF1FF5B71FF1FF1FF2B71FEEFF56
S123EA601FEFCEE97BB71FE8FF1FE9CEE989B71FEBFF1FECCEE99AB71FE5FF1FE6399602A1
S119EA8036D702A60033D7023936960236D7023332A700D7023987
S105FFEEEA2EF5
S111FFF21FEE1FF11FF41FF71FFA1FFDE39807
S9030000FC
